:020000040000FA
:100000000C949E000C94C6000C94C6000C94C60080
:100010000C94C6000C94C6000C94C6000C94C60048
:100020000C94C6000C94C6000C94C6000C94C60038
:100030000C94C6000C94C6000C94C6000C94C60028
:100040000C944A050C94C6000C9418050C94F20408
:100050000C94C6000C94C6000C94C6000C94C60008
:100060000C94C6000C94C60007634236B79BD8A711
:100070001A39685618AEBAAB558C1D3CB7CC5763CD
:10008000BD6DEDFD753EF6177231BF000000803F7B
:1000900008000000BE922449123EABAAAA2ABECD97
:1000A000CCCC4C3E00000080BEABAAAAAA3E000009
:1000B0000000BF000000803F000000000008417801
:1000C000D3BB4387D1133D190E3CC3BD4282AD2B38
:1000D0003E68EC8276BED98FE1A93E4C80EFFFBE30
:1000E00001C4FF7F3F00000000000000000024006A
:1000F00027002A0000000000250028002B0004042F
:1001000004040404040402020202020203030303BF
:10011000030301020408102040800102040810209B
:100120000102040810200000000800020100000382
:1001300004070000000000000000940511241FBE09
:10014000CFEFD8E0DEBFCDBF11E0A0E0B1E0E2E844
:10015000F6E102C005900D92AC33B107D9F721E06A
:10016000ACE3B1E001C01D92AE3FB207E1F710E091
:10017000CEE9D0E004C02197FE010E94390BCD39B1
:10018000D107C9F70E94DE050C943F0B0C940000C8
:10019000AF92BF92CF92DF92EF92FF920F931F9395
:1001A000CF93DF936C017B018B01040F151FEB01D3
:1001B0005E01AE18BF08C017D10759F06991D6018A
:1001C000ED91FC910190F081E02DC6010995892BFC
:1001D00079F7C501DF91CF911F910F91FF90EF90BB
:1001E000DF90CF90BF90AF900895FC01538D448D68
:1001F000252F30E0842F90E0821B930B541710F0D2
:10020000CF96089501970895FC01918D828D9817DE
:1002100061F0A28DAE0FBF2FB11D5D968C91928DB6
:100220009F5F9F73928F90E008958FEF9FEF0895E7
:10023000FC01918D828D981731F0828DE80FF11DB0
:10024000858D90E008958FEF9FEF0895FC01918DCB
:10025000228D892F90E0805C9F4F821B91098F73C4
:100260009927089589E491E00E94260121E0892BD5
:1002700009F420E0822F089580E090E0892B29F096
:100280000E94320181110C9400000895FC01A48D9C
:10029000A80FB92FB11DA35ABF4F2C91848D90E0A8
:1002A00001968F739927848FA689B7892C93A0898B
:1002B000B1898C91837080648C93938D848D981315
:1002C00006C00288F389E02D80818F7D80830895A8
:1002D000EF92FF920F931F93CF93DF93EC0181E096
:1002E000888F9B8D8C8D98131AC0E889F98980813D
:1002F00085FF15C09FB7F894EE89FF896083E88970
:10030000F98980818370806480839FBF81E090E061
:10031000DF91CF911F910F91FF90EF900895F62EEE
:100320000B8D10E00F5F1F4F0F731127E02E8C8D88
:100330008E110CC00FB607FCFACFE889F9898081CD
:1003400085FFF5CFCE010E944601F1CFEB8DEC0F7A
:10035000FD2FF11DE35AFF4FF0829FB7F8940B8FEA
:10036000EA89FB8980818062CFCFCF93DF93EC0154
:10037000888D8823B9F0AA89BB89E889F9898C918D
:1003800085FD03C0808186FD0DC00FB607FCF7CF49
:100390008C9185FFF2CF808185FFEDCFCE010E9449
:1003A0004601E9CFDF91CF91089590E0FC01EA5D2D
:1003B000FE4F2491FC01EE5EFE4F3491FC01E250B1
:1003C000FF4FE491EE23C9F0222339F0233001F1ED
:1003D000A8F4213019F1223029F1F0E0EE0FFF1FCF
:1003E000EC50FF4FA591B4918FB7F894EC91611147
:1003F00026C030953E233C938FBF08952730A9F047
:100400002830C9F0243049F7809180008F7D03C0E7
:10041000809180008F7780938000DFCF84B58F77C5
:1004200084BDDBCF84B58F7DFBCF8091B0008F770B
:100430008093B000D2CF8091B0008F7DF9CF3E2B5A
:10044000DACFCF93DF9390E0FC01EE5EFE4F249174
:1004500082509F4FFC0184918823D1F090E0880F57
:10046000991FFC01E651FF4FA591B491FC01EC509E
:10047000FF4FC591D49161110EC09FB7F8948C9134
:10048000E22FE0958E238C932881E223E8839FBF9F
:10049000DF91CF9108958FB7F894EC91E22BEC9314
:1004A0008FBFF6CF3FB7F894809141019091420100
:1004B000A0914301B091440126B5A89B05C02F3FF0
:1004C00019F00196A11DB11D3FBFBA2FA92F982F7A
:1004D0008827BC01CD01620F711D811D911D42E075
:1004E000660F771F881F991F4A95D1F708950895C1
:1004F00090E080E00895FC0101900020E9F7319739
:10050000AF01481B590BBC0186EE91E00C94C8006A
:100510008F929F92AF92BF920F931F93CF93DF93CF
:10052000CDB7DEB7A1970FB6F894DEBF0FBECDBF33
:1005300019A2423008F44AE08E010F5D1F4F842E4D
:10054000912CB12CA12CA50194010E94170BE62F30
:10055000B901CA01EA30F4F4E05DD801EE938D01EF
:10056000232B242B252B79F790E080E0109719F0AE
:10057000CD010E947B02A1960FB6F894DEBF0FBE9C
:10058000CDBFDF91CF911F910F91BF90AF909F9002
:100590008F900895E95CE1CFCF93DF93EC0160E0A9
:1005A0008E810E94D50161E08E810E94D50160E0BC
:1005B0008E810E94D5018BE891E00197F1F7DF91E0
:1005C000CF910895CF92DF92EF92FF920F931F93F6
:1005D000CF93DF936C017C0187E0E80EF11CD0E043
:1005E000C0E0062F10E0B8010C2E02C0759567958B
:1005F0000A94E2F76170F70181917F010E94D501B1
:100600002196C430D10579F7C601DF91CF911F91B2
:100610000F91FF90EF90DF90CF900C94CC02CF928F
:10062000DF92EF92FF920F931F93CF93DF93EC0132
:10063000F62E642F8C810E94D5018D818F3F19F099
:1006400060E00E94D5010F2D10E08F8584FF25C04A
:100650006E0187E0C80ED11CF12CE12CB8010E2CE4
:1006600002C0759567950A94E2F76170F601819171
:100670006F010E94D501FFEFEF1AFF0A88E0E8162C
:10068000F10461F7CE01DF91CF911F910F91FF909F
:10069000EF90DF90CF900C94CC02B80184E0759578
:1006A00067958A95E1F7CE010E94E2026F2DCE0197
:1006B000DF91CF911F910F91FF90EF90DF90CF903E
:1006C0000C94E20240E0682F86EE91E00C940F0358
:1006D000CF93DF93823029F49091F5019860909345
:1006E000F5018093F9011092FA0180E48093FB01F7
:1006F00080E18093FC0180E58093FD0161E08091C1
:10070000EA010E9421028091EB018F3F19F061E024
:100710000E94210261E08091EC010E942102C6EE5C
:10072000D1E09E01265E31408091F50184FD0BC031
:1007300084E090E021962817390744F461E08E8127
:100740000E942102EECF88E090E0F4CF8BE39DE0A1
:100750000197F1F760E08091EA010E94D50160E025
:100760008091EC010E94D5018091EB018F3F19F03F
:1007700060E00E94D5018091F50184FD39C063E0FD
:1007800086EE91E00E94E202CBE4D6E4CE0101972E
:10079000F1F763E086EE91E00E94E2022197F1F723
:1007A00063E086EE91E00E94E20283E592E0019729
:1007B000F1F762E086EE91E00E94E2028091F5019D
:1007C00080620E94620384E08093F6018CE00E94C4
:1007D000620381E00E9462038BE39FE10197F1F7DE
:1007E00082E08093F70186E0DF91CF910C94620361
:1007F00080620E9462038BE496E40197F1F7809196
:10080000F50180620E94620383E592E00197F1F7AF
:100810008091F50180620E946203D0CF41E00E9486
:100820000F0381E090E008954F925F926F927F9264
:100830008F929F92AF92BF92CF92DF92EF92FF92F0
:100840000F931F93CF936B017C01742EAC019B011E
:100850000E94DD09882399F08EE191E0CF911F91EC
:100860000F91FF90EF90DF90CF90BF90AF909F904F
:100870008F907F906F905F904F900C947B02460119
:100880005701E894B7F82FEF3FEF4FE75FE7C50157
:10089000B4010E94DD0981110DC02FEF3FEF4FE73A
:1008A0005FE7C501B4010E94C30718161CF482E279
:1008B00091E0D4CF2FEF3FEF4FE75FE4C701B601E0
:1008C0000E941B0918161CF486E291E0C7CF2FEF97
:1008D0003FEF4FE75FECC701B6010E94C30787FDFA
:1008E000F3CF20E030E0A901C701B6010E94C307A1
:1008F00010E000E087FF0CC041E06DE286EE91E081
:100900000E940F03F7FAF094F7F8F09401E010E07A
:10091000C0E060E070E080E09FE37C1641F020E002
:1009200030E040E251E40E94C807CF5FF6CFA70154
:1009300096010E9457074B015C010E943A082B0167
:100940003C014AE00E948802080F191FCC23C9F11C
:10095000C301B2010E9469089B01AC01C501B40149
:100960000E9456074B015C0141E06EE286EE91E089
:100970000E940F030F5F1F4FC15018F120E030E0BD
:1009800040E251E4C501B4010E9420092B013C0161
:100990000E943A084B01B12CA12C4AE0C501B401D8
:1009A0000E948802080F191FC501B4010E9469083E
:1009B0009B01AC01C301B2010E9456074B015C01CF
:1009C000DBCFC801CF911F910F91FF90EF90DF9087
:1009D000CF90BF90AF909F908F907F906F905F90DF
:1009E0004F9008951F920F920FB60F9211242F93DC
:1009F0003F934F935F936F937F938F939F93AF93A7
:100A0000BF93EF93FF9389E491E00E944601FF9129
:100A1000EF91BF91AF919F918F917F916F915F9176
:100A20004F913F912F910F900FBE0F901F901895EF
:100A30001F920F920FB60F9211242F938F939F93B3
:100A4000EF93FF93E0915901F0915A018081E09179
:100A50005F01F091600182FD1BC090818091620175
:100A60008F5F8F7320916301821741F0E0916201E3
:100A7000F0E0E75BFE4F958F80936201FF91EF916D
:100A80009F918F912F910F900FBE0F901F901895EF
:100A90008081F4CF1F920F920FB60F9211242F93E3
:100AA0003F938F939F93AF93BF9380913D0190911C
:100AB0003E01A0913F01B091400130913C0123E003
:100AC000230F2D3758F50196A11DB11D20933C0130
:100AD00080933D0190933E01A0933F01B09340016C
:100AE0008091410190914201A0914301B091440154
:100AF0000196A11DB11D8093410190934201A093E5
:100B00004301B0934401BF91AF919F918F913F9169
:100B10002F910F900FBE0F901F90189526E8230F6E
:100B20000296A11DB11DD2CFE9E4F1E01382128239
:100B300088EE93E0A0E0B0E084839583A683B7833A
:100B400084E091E09183808385EC90E095878487B1
:100B500084EC90E09787868780EC90E0918B808B87
:100B600081EC90E0938B828B82EC90E0958B848B70
:100B700086EC90E0978B868B118E128E138E148EDE
:100B8000E6EEF1E01382128286E191E091838083A8
:100B90008AE084838FEF858389E0868385E087837D
:100BA00084E0808783E0818782E0828713861486D1
:100BB00015861686178681E00C946803789484B5B0
:100BC000826084BD84B5816084BD85B5826085BD49
:100BD00085B5816085BD80916E00816080936E00D7
:100BE00010928100809181008260809381008091C9
:100BF000810081608093810080918000816080937A
:100C000080008091B10084608093B1008091B00039
:100C100081608093B00080917A00846080937A0034
:100C200080917A00826080937A0080917A0081605E
:100C300080937A0080917A00806880937A00109285
:100C4000C10082E00E94680360E08EE00E94210201
:100C5000E0915901F0915A0182E08083E0915501C1
:100C6000F09156011082E0915701F091580188EE01
:100C7000808310926101E0915D01F0915E0186E058
:100C80008083E0915B01F0915C01808180618083D1
:100C9000E0915B01F0915C01808188608083E0914C
:100CA0005B01F0915C01808180688083E0915B0151
:100CB000F0915C0180818F7D808390E4F92ECBE3FD
:100CC000DFE100E010E0F0927C0080917A00806427
:100CD00080937A0080917A0086FDFCCF8091780025
:100CE00060917900762F682F072E000C880B990BE6
:100CF0000E946B082B013C0120E030E040EA50E408
:100D00000E94200920E030EC4FE754E40E94C8071D
:100D10009B01AC0160E070E080EA90E40E94C807AB
:100D200020E030E040E85FE30E94560720E030E03A
:100D300040EF52E40E9420094B015C0120E030E0CA
:100D40004AEF53E4C301B2010E94C30787FF9FC06B
:100D50002EEE3AE546E950E4C501B4010E94C80709
:100D600026EB3AE643E85FEB0E948D09609345016C
:100D700070934601809347019093480181E00E945F
:100D80006203CE010197F1F7E1E08091F901811151
:100D9000E0E0E195F0E0EA51FE4F84898F5F8068E2
:100DA0000E9462038AE291E00E947B026091450109
:100DB00070914601809147019091480143E00E9463
:100DC000140482E391E00E947B02E091F901E23099
:100DD00008F06AC0E150F0E0EA51FE4F84898D5F6F
:100DE00080680E94620384E391E00E947B0223EC0E
:100DF00035EF4CE151E460914501709146018091DD
:100E00004701909148010E94C80720E030E04AE77E
:100E100054E40E94200942E00E9414048AE391E015
:100E20000E947B0281E391E00E947B020E945202B9
:100E30002B013C0188EE882E83E0982EA12CB12C4A
:100E40000E9452026419750986099709683E734029
:100E500081059105A8F321E0821A9108A108B10843
:100E600088EE480E83E0581E611C711C81149104A9
:100E7000A104B10429F70115110509F424CF0E943A
:100E80003201882309F41FCF0E9400001CCF2BE8F9
:100E90003CE647EB50E4C501B4010E94C8072CEEC4
:100EA0003EEA4BEB5FEB60CFE1E095CF5058BB27BC
:100EB000AA270E946E070C94E1080E94D30838F01C
:100EC0000E94DA0820F039F49F3F19F426F40C94BC
:100ED000D0080EF4E095E7FB0C94CA08E92F0E94B5
:100EE000F20858F3BA17620773078407950720F0D2
:100EF00079F4A6F50C9414090EF4E0950B2EBA2F94
:100F0000A02D0B01B90190010C01CA01A00111240F
:100F1000FF27591B99F0593F50F4503E68F11A16BB
:100F2000F040A22F232F342F4427585FF3CF46954C
:100F300037952795A795F0405395C9F77EF41F166E
:100F4000BA0B620B730B840BBAF09150A1F0FF0F38
:100F5000BB1F661F771F881FC2F70EC0BA0F621F24
:100F6000731F841F48F4879577956795B795F79514
:100F70009E3F08F0B0CF9395880F08F09927EE0FA9
:100F80009795879508950E94A60808F481E0089532
:100F90000E94DC070C94E1080E94DA0858F00E94D5
:100FA000D30840F029F45F3F29F00C94CA0851118E
:100FB0000C9415090C94D0080E94F20868F3992348
:100FC000B1F3552391F3951B550BBB27AA27621745
:100FD0007307840738F09F5F5F4F220F331F441F52
:100FE000AA1FA9F335D00E2E3AF0E0E832D0915086
:100FF0005040E695001CCAF72BD0FE2F29D0660F73
:10100000771F881FBB1F261737074807AB07B0E8B5
:1010100009F0BB0B802DBF01FF2793585F4F3AF0BB
:101020009E3F510578F00C94CA080C9415095F3F57
:10103000E4F3983ED4F3869577956795B795F79541
:101040009F5FC9F7880F911D9695879597F9089529
:10105000E1E0660F771F881FBB1F621773078407C5
:10106000BA0720F0621B730B840BBA0BEE1F88F7D4
:10107000E09508950E94FA0888F09F5798F0B92FDC
:101080009927B751B0F0E1F0660F771F881F991FBD
:101090001AF0BA95C9F714C0B13091F00E94140942
:1010A000B1E008950C941409672F782F8827B85F52
:1010B00039F0B93FCCF3869577956795B395D9F715
:1010C0003EF490958095709561957F4F8F4F9F4F1F
:1010D0000895E89409C097FB3EF49095809570952B
:1010E00061957F4F8F4F9F4F9923A9F0F92F96E974
:1010F000BB279395F695879577956795B795F111E9
:10110000F8CFFAF4BB0F11F460FF1BC06F5F7F4F85
:101110008F4F9F4F16C0882311F096E911C0772397
:1011200021F09EE8872F762F05C0662371F096E8A0
:10113000862F70E060E02AF09A95660F771F881F6F
:10114000DAF7880F9695879597F90895990F000813
:10115000550FAA0BE0E8FEEF16161706E807F90789
:10116000C0F012161306E407F50798F0621B730B24
:10117000840B950B39F40A2661F0232B242B252BA5
:1011800021F408950A2609F4A140A6958FEF811D48
:10119000811D089597F99F6780E870E060E00895E9
:1011A0009FEF80EC089500240A941616170618067F
:1011B0000906089500240A9412161306140605065B
:1011C0000895092E0394000C11F4882352F0BB0FEC
:1011D00040F4BF2B11F460FF04C06F5F7F4F8F4F4F
:1011E0009F4F089557FD9058440F551F59F05F3F8A
:1011F00071F04795880F97FB991F61F09F3F79F039
:1012000087950895121613061406551FF2CF4695BA
:10121000F1DF08C0161617061806991FF1CF86953C
:101220007105610508940895E894BB276627772720
:10123000CB0197F908950E94A60808F48FEF08954E
:101240000E9433090C94E1080E94D30838F00E94F0
:10125000DA0820F0952311F00C94CA080C94D008F9
:1012600011240C9415090E94F20870F3959FC1F3A4
:10127000950F50E0551F629FF001729FBB27F00D44
:10128000B11D639FAA27F00DB11DAA1F649F662799
:10129000B00DA11D661F829F2227B00DA11D621FE8
:1012A000739FB00DA11D621F839FA00D611D221FA2
:1012B000749F3327A00D611D231F849F600D211D86
:1012C000822F762F6A2F11249F5750409AF0F1F009
:1012D00088234AF0EE0FFF1FBB1F661F771F881F72
:1012E00091505040A9F79E3F510580F00C94CA08D8
:1012F0000C9415095F3FE4F3983ED4F386957795F7
:101300006795B795F795E7959F5FC1F7FE2B880F17
:10131000911D9695879597F90895FA01EE0FFF1F95
:10132000309621053105A1F16115710561F4803810
:10133000BFE39B0749F168949038810561F08038DC
:10134000BFEF9B0741F099234AF5FF3FE1053105C7
:10135000210519F1E8940894E795D901AA2329F405
:10136000AB2FBE2FF85FD0F310C0FF5F70F4A695CF
:10137000E0F7F73950F019F0FF3A38F49F779F9370
:101380000DD00F9007FC9058089546F00C94D008AB
:1013900060E070E080E89FE308954FE79F775F93F8
:1013A0004F933F932F930E948D0A2F913F914F911E
:1013B0005F910E9420090C94EA090E94A608880BFC
:1013C000990B089529F416F00C94CA080C9414098A
:1013D0000C94D0080E94FA08A8F39638A0F707F8F2
:1013E0000F92E8942BE33AEA48EB5FE70E94360954
:1013F0000F920F920F924DB75EB70F920E94D50ACF
:10140000E8E6F0E00E941C0A4F915F91EF91FF9196
:10141000E595EE1FFF1F49F0FE57E0684427EE0FE9
:10142000441FFA95E1F74195550B0E944F0A0F9022
:1014300007FE0C94430A0895DF93CF931F930F93F5
:10144000FF92EF92DF927B018C01689406C0DA2E46
:10145000EF010E943309FE01E894A5912591359191
:1014600045915591A6F3EF010E946E07FE01970189
:10147000A801DA9469F7DF90EF90FF900F911F9128
:10148000CF91DF9108959B01AC0160E070E080E8AE
:101490009FE30C94C8070C94CA080C94090B0E9493
:1014A000FA08D8F39923C9F3940F511DA3F391506F
:1014B000504094F059F0882332F0660F771F881F50
:1014C00091505040C1F79E3F51052CF7880F911D58
:1014D0009695879597F908955F3FACF0983E9CF0FC
:1014E000BB27869577956795B79508F4B160939576
:1014F000C1F7BB0F58F711F460FFE8CF6F5F7F4F64
:101500008F4F9F4FE3CF0C94150916F00C94090BE5
:101510000C94D00868940C94CA080E94FA08A8F3A6
:101520009923C1F3AEF3DF93CF931F930F93FF92F1
:10153000C92FDD2788232AF02197660F771F881F80
:10154000DAF720E030E040E85FEB9FE3883920F0F5
:10155000803E38F021968F770E945707E0E9F0E04F
:1015600004C00E945707EDEBF0E00E941C0A8B01BB
:10157000BE01EC01FB2E6F5771097595771F880B23
:10158000990B0E946B0828E132E741E35FE30E9478
:101590003309AF2D9801AE01FF900F911F91CF91AC
:1015A000DF910E946E070C94E108FA01DC01AA0F9A
:1015B000BB1F9B01AC01BF5728F4222733274427C8
:1015C000507820C0B75190F4AB2F00244695379542
:1015D0002795011CA395D2F3002071F0220F331F31
:1015E000441FB395DAF30ED00C94560761307105A1
:1015F000A0E88A07B94630F49B01AC01662777273B
:1016000088279078309621F020833183428353835A
:1016100008959F3F31F0915020F487957795679515
:10162000B795880F911D9695879597F90895A1E232
:101630001A2EAA1BBB1BFD010DC0AA1FBB1FEE1F4C
:10164000FF1FA217B307E407F50720F0A21BB30B97
:10165000E40BF50B661F771F881F991F1A9469F713
:1016600060957095809590959B01AC01BD01CF016F
:101670000895EE0FFF1F0590F491E02D0994F89462
:10168000FFCF000000006801C800F500B501260189
:1016900004011801000000000E04C800780277025F
:1016A0006E616E00696E66006F76660046756572E3
:0E16B0007A613A004E005065736F3A00670091
:107E0000112484B714BE81FFF0D085E080938100F7
:107E100082E08093C00088E18093C10086E0809377
:107E2000C20080E18093C4008EE0C9D0259A86E02C
:107E300020E33CEF91E0309385002093840096BBD3
:107E4000B09BFECF1D9AA8958150A9F7CC24DD24C4
:107E500088248394B5E0AB2EA1E19A2EF3E0BF2EE7
:107E6000A2D0813461F49FD0082FAFD0023811F036
:107E7000013811F484E001C083E08DD089C08234E0
:107E800011F484E103C0853419F485E0A6D080C0E4
:107E9000853579F488D0E82EFF2485D0082F10E0AE
:107EA000102F00270E291F29000F111F8ED06801E7
:107EB0006FC0863521F484E090D080E0DECF843638
:107EC00009F040C070D06FD0082F6DD080E0C81688
:107ED00080E7D80618F4F601B7BEE895C0E0D1E017
:107EE00062D089930C17E1F7F0E0CF16F0E7DF06D8
:107EF00018F0F601B7BEE89568D007B600FCFDCFD4
:107F0000A601A0E0B1E02C9130E011968C91119780
:107F100090E0982F8827822B932B1296FA010C0160
:107F200087BEE89511244E5F5F4FF1E0A038BF0790
:107F300051F7F601A7BEE89507B600FCFDCF97BE46
:107F4000E89526C08437B1F42ED02DD0F82E2BD052
:107F50003CD0F601EF2C8F010F5F1F4F84911BD097
:107F6000EA94F801C1F70894C11CD11CFA94CF0C13
:107F7000D11C0EC0853739F428D08EE10CD085E9AC
:107F80000AD08FE07ACF813511F488E018D01DD067
:107F900080E101D065CF982F8091C00085FFFCCF94
:107FA0009093C60008958091C00087FFFCCF809118
:107FB000C00084FD01C0A8958091C6000895E0E648
:107FC000F0E098E1908380830895EDDF803219F02E
:107FD00088E0F5DFFFCF84E1DECF1F93182FE3DFCA
:107FE0001150E9F7F2DF1F91089580E0E8DFEE27F6
:047FF000FF270994CA
:027FFE00040479
:00000001FF
